{
  "transactions": [
    {
      "hash": "0xeba314546e9ed59d1a87bef88c4b392dfc9185b478cad3a48ff5d4e278ea41db",
      "transactionType": "CALL",
      "contractName": null,
      "contractAddress": "0x138b6e385a251b72830f0540bf54e307b8679112",
      "function": "initialize(bytes)",
      "arguments": [
        "0x0000000000000000000000002b1aaa6c0746e09e61b5a12ed4e7ba62e3644e300000000000000000000000001d81baabf0ac77c42bf1fb77943526ece1aeaa01000000000000000000000000afa8399499b2ee41a04ed98c59db1e0e65cb73c10000000000000000000000004f6b51c8b4f31c7a787024780dadecfd5fc08df7000000000000000000000000000000000000000000000000000000000000000000000000000000000000000000000000000000000000000000000000000000000000000000000000000000000000000000000000000000000000000000000000"
      ],
      "transaction": {
        "from": "0x0eae37a737ea288596ae4bd043eb09202e093302",
        "to": "0x138b6e385a251b72830f0540bf54e307b8679112",
        "gas": "0x44d7f",
        "value": "0x0",
        "input": "0x439fab91000000000000000000000000000000000000000000000000000000000000002000000000000000000000000000000000000000000000000000000000000000e00000000000000000000000002b1aaa6c0746e09e61b5a12ed4e7ba62e3644e300000000000000000000000001d81baabf0ac77c42bf1fb77943526ece1aeaa01000000000000000000000000afa8399499b2ee41a04ed98c59db1e0e65cb73c10000000000000000000000004f6b51c8b4f31c7a787024780dadecfd5fc08df7000000000000000000000000000000000000000000000000000000000000000000000000000000000000000000000000000000000000000000000000000000000000000000000000000000000000000000000000000000000000000000000000",
        "nonce": "0x24",
        "chainId": "0x61"
      },
      "additionalContracts": [],
      "isFixedGasLimit": false
    }
  ],
  "receipts": [
    {
      "status": "0x1",
      "cumulativeGasUsed": "0x2f129",
      "logs": [
        {
          "address": "0x138b6e385a251b72830f0540bf54e307b8679112",
          "topics": [
            "0x2f8788117e7eff1d82e926ec794901d17c78024a50270940304540a733656f0d",
            "0x43faa5394fad5da9c07153cbcf22d3e5edf5ab7f31544ba862d2e4bbf2e9a48d",
            "0x0000000000000000000000002b1aaa6c0746e09e61b5a12ed4e7ba62e3644e30",
            "0x0000000000000000000000000eae37a737ea288596ae4bd043eb09202e093302"
          ],
          "data": "0x",
          "blockHash": "0xd6c86c5dfd088e3f3a974180a5c2da7ea366ec5f1046d4d33429e952b9809dec",
          "blockNumber": "0x2f3f28f",
          "transactionHash": "0xeba314546e9ed59d1a87bef88c4b392dfc9185b478cad3a48ff5d4e278ea41db",
          "transactionIndex": "0x0",
          "logIndex": "0x0",
          "removed": false
        },
        {
          "address": "0x138b6e385a251b72830f0540bf54e307b8679112",
          "topics": [
            "0x2f8788117e7eff1d82e926ec794901d17c78024a50270940304540a733656f0d",
            "0x1acf5ce51fa2b28efde5acae5b7b783900a51ccd000f8f7152d7f921142c5af2",
            "0x0000000000000000000000004f6b51c8b4f31c7a787024780dadecfd5fc08df7",
            "0x0000000000000000000000000eae37a737ea288596ae4bd043eb09202e093302"
          ],
          "data": "0x",
          "blockHash": "0xd6c86c5dfd088e3f3a974180a5c2da7ea366ec5f1046d4d33429e952b9809dec",
          "blockNumber": "0x2f3f28f",
          "transactionHash": "0xeba314546e9ed59d1a87bef88c4b392dfc9185b478cad3a48ff5d4e278ea41db",
          "transactionIndex": "0x0",
          "logIndex": "0x1",
          "removed": false
        },
        {
          "address": "0x138b6e385a251b72830f0540bf54e307b8679112",
          "topics": [
            "0x2f8788117e7eff1d82e926ec794901d17c78024a50270940304540a733656f0d",
            "0x387e6855c418f7449edde8569e1597c13724ffde8b433a88ca59a5014ef61a0c",
            "0x0000000000000000000000004f6b51c8b4f31c7a787024780dadecfd5fc08df7",
            "0x0000000000000000000000000eae37a737ea288596ae4bd043eb09202e093302"
          ],
          "data": "0x",
          "blockHash": "0xd6c86c5dfd088e3f3a974180a5c2da7ea366ec5f1046d4d33429e952b9809dec",
          "blockNumber": "0x2f3f28f",
          "transactionHash": "0xeba314546e9ed59d1a87bef88c4b392dfc9185b478cad3a48ff5d4e278ea41db",
          "transactionIndex": "0x0",
          "logIndex": "0x2",
          "removed": false
        }
      ],
      "logsBloom": "0x00000004000000000000000000000000000000000000002000000000000000000000000000000000000000000000000000000000000000000004000000800000000000000000020000000000000000000000000000000004000000000000000080000000000000000000000000000000000000000008000000000000000000000000000000000000000000000000000000000001000000000000000000000000000800000002000040000000000000000000000000000000001000000000000004000000000000008000000000000000000000000000001102000040000000000000000000000040000004000000000000008000000000000000410000000000",
      "type": "0x0",
      "transactionHash": "0xeba314546e9ed59d1a87bef88c4b392dfc9185b478cad3a48ff5d4e278ea41db",
      "transactionIndex": "0x0",
      "blockHash": "0xd6c86c5dfd088e3f3a974180a5c2da7ea366ec5f1046d4d33429e952b9809dec",
      "blockNumber": "0x2f3f28f",
      "gasUsed": "0x2f129",
      "effectiveGasPrice": "0xb2d05e00",
      "from": "0x0eae37a737ea288596ae4bd043eb09202e093302",
      "to": "0x138b6e385a251b72830f0540bf54e307b8679112",
      "contractAddress": null
    }
  ],
  "libraries": [],
  "pending": [],
  "returns": {},
  "timestamp": 1743348800,
  "chain": 97,
  "commit": null
}