{
  "transactions": [
    {
      "hash": "0x2cd6ccd9d7820463c05908a49bad66113fc2052991dc48b07c5ae290dcae81d3",
      "transactionType": "CALL",
      "contractName": null,
      "contractAddress": "0xe37617c3fa0baa3c87d59fe80680584f5510a886",
      "function": "initialize(bytes)",
      "arguments": [
        "0x0000000000000000000000002b1aaa6c0746e09e61b5a12ed4e7ba62e3644e300000000000000000000000001d81baabf0ac77c42bf1fb77943526ece1aeaa01000000000000000000000000afa8399499b2ee41a04ed98c59db1e0e65cb73c100000000000000000000000000000000000000000000000000000000000000000000000000000000000000000124a0df949a7e934bdd0591830320e99f2e215d00000000000000000000000000000000000000000000000000000000000000000000000000000000000000000000000000000000000000000000000000000000"
      ],
      "transaction": {
        "from": "0x0eae37a737ea288596ae4bd043eb09202e093302",
        "to": "0xe37617c3fa0baa3c87d59fe80680584f5510a886",
        "gas": "0x44d7f",
        "value": "0x0",
        "input": "0x439fab91000000000000000000000000000000000000000000000000000000000000002000000000000000000000000000000000000000000000000000000000000000e00000000000000000000000002b1aaa6c0746e09e61b5a12ed4e7ba62e3644e300000000000000000000000001d81baabf0ac77c42bf1fb77943526ece1aeaa01000000000000000000000000afa8399499b2ee41a04ed98c59db1e0e65cb73c100000000000000000000000000000000000000000000000000000000000000000000000000000000000000000124a0df949a7e934bdd0591830320e99f2e215d00000000000000000000000000000000000000000000000000000000000000000000000000000000000000000000000000000000000000000000000000000000",
        "nonce": "0x52",
        "chainId": "0x61"
      },
      "additionalContracts": [],
      "isFixedGasLimit": false
    }
  ],
  "receipts": [
    {
      "status": "0x1",
      "cumulativeGasUsed": "0x2f129",
      "logs": [
        {
          "address": "0xe37617c3fa0baa3c87d59fe80680584f5510a886",
          "topics": [
            "0x2f8788117e7eff1d82e926ec794901d17c78024a50270940304540a733656f0d",
            "0x43faa5394fad5da9c07153cbcf22d3e5edf5ab7f31544ba862d2e4bbf2e9a48d",
            "0x0000000000000000000000002b1aaa6c0746e09e61b5a12ed4e7ba62e3644e30",
            "0x0000000000000000000000000eae37a737ea288596ae4bd043eb09202e093302"
          ],
          "data": "0x",
          "blockHash": "0x4f4b7622ce24b06376c84b2399c54e683a7e6ad7e0ee451eb43cfa42f110de5f",
          "blockNumber": "0x2f40358",
          "transactionHash": "0x2cd6ccd9d7820463c05908a49bad66113fc2052991dc48b07c5ae290dcae81d3",
          "transactionIndex": "0x0",
          "logIndex": "0x0",
          "removed": false
        },
        {
          "address": "0xe37617c3fa0baa3c87d59fe80680584f5510a886",
          "topics": [
            "0x2f8788117e7eff1d82e926ec794901d17c78024a50270940304540a733656f0d",
            "0x7030e08a2209456e1451fb7d9e0501472c4f6b23b0083ef4dc74af97c80a5f7b",
            "0x0000000000000000000000000124a0df949a7e934bdd0591830320e99f2e215d",
            "0x0000000000000000000000000eae37a737ea288596ae4bd043eb09202e093302"
          ],
          "data": "0x",
          "blockHash": "0x4f4b7622ce24b06376c84b2399c54e683a7e6ad7e0ee451eb43cfa42f110de5f",
          "blockNumber": "0x2f40358",
          "transactionHash": "0x2cd6ccd9d7820463c05908a49bad66113fc2052991dc48b07c5ae290dcae81d3",
          "transactionIndex": "0x0",
          "logIndex": "0x1",
          "removed": false
        },
        {
          "address": "0xe37617c3fa0baa3c87d59fe80680584f5510a886",
          "topics": [
            "0x2f8788117e7eff1d82e926ec794901d17c78024a50270940304540a733656f0d",
            "0x387e6855c418f7449edde8569e1597c13724ffde8b433a88ca59a5014ef61a0c",
            "0x0000000000000000000000000124a0df949a7e934bdd0591830320e99f2e215d",
            "0x0000000000000000000000000eae37a737ea288596ae4bd043eb09202e093302"
          ],
          "data": "0x",
          "blockHash": "0x4f4b7622ce24b06376c84b2399c54e683a7e6ad7e0ee451eb43cfa42f110de5f",
          "blockNumber": "0x2f40358",
          "transactionHash": "0x2cd6ccd9d7820463c05908a49bad66113fc2052991dc48b07c5ae290dcae81d3",
          "transactionIndex": "0x0",
          "logIndex": "0x2",
          "removed": false
        }
      ],
      "logsBloom": "0x00080004000002000000000000000200000000000000002000000000000000000000000200000000000000000000040000000000000000000004000000800000000000000000000000000000000000000000000000000000000000000000000080000000000000000000000000000000000000800008000000000000000000000000000000000000000000000000000000000000000000000000000000000020000000000002000040000000000000000000000000000000001000000010000004000000008000008000000000000000000000000000000100000040000000000000000000000000000000000000000000008000000000000000010000000000",
      "type": "0x0",
      "transactionHash": "0x2cd6ccd9d7820463c05908a49bad66113fc2052991dc48b07c5ae290dcae81d3",
      "transactionIndex": "0x0",
      "blockHash": "0x4f4b7622ce24b06376c84b2399c54e683a7e6ad7e0ee451eb43cfa42f110de5f",
      "blockNumber": "0x2f40358",
      "gasUsed": "0x2f129",
      "effectiveGasPrice": "0xb2d05e00",
      "from": "0x0eae37a737ea288596ae4bd043eb09202e093302",
      "to": "0xe37617c3fa0baa3c87d59fe80680584f5510a886",
      "contractAddress": null
    }
  ],
  "libraries": [],
  "pending": [],
  "returns": {},
  "timestamp": 1743361690,
  "chain": 97,
  "commit": null
}