{
  "transactions": [
    {
      "hash": "0xca7ae2b808d4f62cdb2547f2d3717c6c5d18190d32e34895b5df7f5cf61137a3",
      "transactionType": "CALL",
      "contractName": null,
      "contractAddress": "0x56a2e2ad5a05d0792fbe73bbff3bbf87d7b54026",
      "function": "initialize(bytes)",
      "arguments": [
        "0x0000000000000000000000002b1aaa6c0746e09e61b5a12ed4e7ba62e3644e300000000000000000000000001d81baabf0ac77c42bf1fb77943526ece1aeaa01000000000000000000000000afa8399499b2ee41a04ed98c59db1e0e65cb73c10000000000000000000000000000000000000000000000000000000000000000000000000000000000000000136926c71fef86bb9122b6ef87a8a3cfc131162300000000000000000000000000000000000000000000000000000000000000000000000000000000000000000000000000000000000000000000000000000000"
      ],
      "transaction": {
        "from": "0x0eae37a737ea288596ae4bd043eb09202e093302",
        "to": "0x56a2e2ad5a05d0792fbe73bbff3bbf87d7b54026",
        "gas": "0x44d7f",
        "value": "0x0",
        "input": "0x439fab91000000000000000000000000000000000000000000000000000000000000002000000000000000000000000000000000000000000000000000000000000000e00000000000000000000000002b1aaa6c0746e09e61b5a12ed4e7ba62e3644e300000000000000000000000001d81baabf0ac77c42bf1fb77943526ece1aeaa01000000000000000000000000afa8399499b2ee41a04ed98c59db1e0e65cb73c10000000000000000000000000000000000000000000000000000000000000000000000000000000000000000136926c71fef86bb9122b6ef87a8a3cfc131162300000000000000000000000000000000000000000000000000000000000000000000000000000000000000000000000000000000000000000000000000000000",
        "nonce": "0x5d",
        "chainId": "0x61"
      },
      "additionalContracts": [],
      "isFixedGasLimit": false
    }
  ],
  "receipts": [
    {
      "status": "0x1",
      "cumulativeGasUsed": "0x2f129",
      "logs": [
        {
          "address": "0x56a2e2ad5a05d0792fbe73bbff3bbf87d7b54026",
          "topics": [
            "0x2f8788117e7eff1d82e926ec794901d17c78024a50270940304540a733656f0d",
            "0x43faa5394fad5da9c07153cbcf22d3e5edf5ab7f31544ba862d2e4bbf2e9a48d",
            "0x0000000000000000000000002b1aaa6c0746e09e61b5a12ed4e7ba62e3644e30",
            "0x0000000000000000000000000eae37a737ea288596ae4bd043eb09202e093302"
          ],
          "data": "0x",
          "blockHash": "0xd2ba1dd372aab322f1ed84dcf0ba4f9a18a88777073f8b4ae50d3e2a98a5734e",
          "blockNumber": "0x2f41f09",
          "transactionHash": "0xca7ae2b808d4f62cdb2547f2d3717c6c5d18190d32e34895b5df7f5cf61137a3",
          "transactionIndex": "0x0",
          "logIndex": "0x0",
          "removed": false
        },
        {
          "address": "0x56a2e2ad5a05d0792fbe73bbff3bbf87d7b54026",
          "topics": [
            "0x2f8788117e7eff1d82e926ec794901d17c78024a50270940304540a733656f0d",
            "0x7030e08a2209456e1451fb7d9e0501472c4f6b23b0083ef4dc74af97c80a5f7b",
            "0x000000000000000000000000136926c71fef86bb9122b6ef87a8a3cfc1311623",
            "0x0000000000000000000000000eae37a737ea288596ae4bd043eb09202e093302"
          ],
          "data": "0x",
          "blockHash": "0xd2ba1dd372aab322f1ed84dcf0ba4f9a18a88777073f8b4ae50d3e2a98a5734e",
          "blockNumber": "0x2f41f09",
          "transactionHash": "0xca7ae2b808d4f62cdb2547f2d3717c6c5d18190d32e34895b5df7f5cf61137a3",
          "transactionIndex": "0x0",
          "logIndex": "0x1",
          "removed": false
        },
        {
          "address": "0x56a2e2ad5a05d0792fbe73bbff3bbf87d7b54026",
          "topics": [
            "0x2f8788117e7eff1d82e926ec794901d17c78024a50270940304540a733656f0d",
            "0x387e6855c418f7449edde8569e1597c13724ffde8b433a88ca59a5014ef61a0c",
            "0x000000000000000000000000136926c71fef86bb9122b6ef87a8a3cfc1311623",
            "0x0000000000000000000000000eae37a737ea288596ae4bd043eb09202e093302"
          ],
          "data": "0x",
          "blockHash": "0xd2ba1dd372aab322f1ed84dcf0ba4f9a18a88777073f8b4ae50d3e2a98a5734e",
          "blockNumber": "0x2f41f09",
          "transactionHash": "0xca7ae2b808d4f62cdb2547f2d3717c6c5d18190d32e34895b5df7f5cf61137a3",
          "transactionIndex": "0x0",
          "logIndex": "0x2",
          "removed": false
        }
      ],
      "logsBloom": "0x00000004000002000000000000000000000000000000012000000000000000000000000200000800000000000000000000000000000000000004000000800000000000000008000000000000000000000000000000000000000000000000000080000000000000000000000000000000000000800008000000000000000000000000000000000000000000000000000000000000000000000000000000000000000000000002000040000000000000000000000000000000101000000000000004000000000000008000000000000000000000000000000100000040000000000000000000000000000000000000000000008000000000004000010000000000",
      "type": "0x0",
      "transactionHash": "0xca7ae2b808d4f62cdb2547f2d3717c6c5d18190d32e34895b5df7f5cf61137a3",
      "transactionIndex": "0x0",
      "blockHash": "0xd2ba1dd372aab322f1ed84dcf0ba4f9a18a88777073f8b4ae50d3e2a98a5734e",
      "blockNumber": "0x2f41f09",
      "gasUsed": "0x2f129",
      "effectiveGasPrice": "0x12a05f200",
      "from": "0x0eae37a737ea288596ae4bd043eb09202e093302",
      "to": "0x56a2e2ad5a05d0792fbe73bbff3bbf87d7b54026",
      "contractAddress": null
    }
  ],
  "libraries": [],
  "pending": [],
  "returns": {},
  "timestamp": 1743382956,
  "chain": 97,
  "commit": null
}