{
  "transactions": [
    {
      "hash": "0x29a6022b98723246c3bceee9517e2ee09b7a17cde7c3c5d4d574b709e8f8b706",
      "transactionType": "CALL",
      "contractName": null,
      "contractAddress": "0x0abf81cd4071ba4e42e0a30190d4f75c6adb25be",
      "function": "initialize(bytes)",
      "arguments": [
        "0x0000000000000000000000002b1aaa6c0746e09e61b5a12ed4e7ba62e3644e300000000000000000000000001d81baabf0ac77c42bf1fb77943526ece1aeaa01000000000000000000000000afa8399499b2ee41a04ed98c59db1e0e65cb73c1000000000000000000000000bc5d4562a8a3163cd72ac20d6f3fe3bb7bd6633b000000000000000000000000000000000000000000000000000000000000000000000000000000000000000000000000000000000000000000000000000000000000000000000000000000000000000000000000000000000000000000000000"
      ],
      "transaction": {
        "from": "0x0eae37a737ea288596ae4bd043eb09202e093302",
        "to": "0x0abf81cd4071ba4e42e0a30190d4f75c6adb25be",
        "gas": "0x44d7f",
        "value": "0x0",
        "input": "0x439fab91000000000000000000000000000000000000000000000000000000000000002000000000000000000000000000000000000000000000000000000000000000e00000000000000000000000002b1aaa6c0746e09e61b5a12ed4e7ba62e3644e300000000000000000000000001d81baabf0ac77c42bf1fb77943526ece1aeaa01000000000000000000000000afa8399499b2ee41a04ed98c59db1e0e65cb73c1000000000000000000000000bc5d4562a8a3163cd72ac20d6f3fe3bb7bd6633b000000000000000000000000000000000000000000000000000000000000000000000000000000000000000000000000000000000000000000000000000000000000000000000000000000000000000000000000000000000000000000000000",
        "nonce": "0x2d",
        "chainId": "0x61"
      },
      "additionalContracts": [],
      "isFixedGasLimit": false
    }
  ],
  "receipts": [
    {
      "status": "0x1",
      "cumulativeGasUsed": "0x2f129",
      "logs": [
        {
          "address": "0x0abf81cd4071ba4e42e0a30190d4f75c6adb25be",
          "topics": [
            "0x2f8788117e7eff1d82e926ec794901d17c78024a50270940304540a733656f0d",
            "0x43faa5394fad5da9c07153cbcf22d3e5edf5ab7f31544ba862d2e4bbf2e9a48d",
            "0x0000000000000000000000002b1aaa6c0746e09e61b5a12ed4e7ba62e3644e30",
            "0x0000000000000000000000000eae37a737ea288596ae4bd043eb09202e093302"
          ],
          "data": "0x",
          "blockHash": "0xd7b7d46406c7774f6ac83e4b3e1e0fb2251036238349b809a053f17b73ac9161",
          "blockNumber": "0x2f3f52a",
          "transactionHash": "0x29a6022b98723246c3bceee9517e2ee09b7a17cde7c3c5d4d574b709e8f8b706",
          "transactionIndex": "0x0",
          "logIndex": "0x0",
          "removed": false
        },
        {
          "address": "0x0abf81cd4071ba4e42e0a30190d4f75c6adb25be",
          "topics": [
            "0x2f8788117e7eff1d82e926ec794901d17c78024a50270940304540a733656f0d",
            "0x1acf5ce51fa2b28efde5acae5b7b783900a51ccd000f8f7152d7f921142c5af2",
            "0x000000000000000000000000bc5d4562a8a3163cd72ac20d6f3fe3bb7bd6633b",
            "0x0000000000000000000000000eae37a737ea288596ae4bd043eb09202e093302"
          ],
          "data": "0x",
          "blockHash": "0xd7b7d46406c7774f6ac83e4b3e1e0fb2251036238349b809a053f17b73ac9161",
          "blockNumber": "0x2f3f52a",
          "transactionHash": "0x29a6022b98723246c3bceee9517e2ee09b7a17cde7c3c5d4d574b709e8f8b706",
          "transactionIndex": "0x0",
          "logIndex": "0x1",
          "removed": false
        },
        {
          "address": "0x0abf81cd4071ba4e42e0a30190d4f75c6adb25be",
          "topics": [
            "0x2f8788117e7eff1d82e926ec794901d17c78024a50270940304540a733656f0d",
            "0x387e6855c418f7449edde8569e1597c13724ffde8b433a88ca59a5014ef61a0c",
            "0x000000000000000000000000bc5d4562a8a3163cd72ac20d6f3fe3bb7bd6633b",
            "0x0000000000000000000000000eae37a737ea288596ae4bd043eb09202e093302"
          ],
          "data": "0x",
          "blockHash": "0xd7b7d46406c7774f6ac83e4b3e1e0fb2251036238349b809a053f17b73ac9161",
          "blockNumber": "0x2f3f52a",
          "transactionHash": "0x29a6022b98723246c3bceee9517e2ee09b7a17cde7c3c5d4d574b709e8f8b706",
          "transactionIndex": "0x0",
          "logIndex": "0x2",
          "removed": false
        }
      ],
      "logsBloom": "0x00000004000000000000000000000000000000000000002000000000000000000000000000000000000000000000000000000000000000000004000000800000000000000000000000800000000008000000100000000000000000000100000080000000000000000000000000000000000000000008000000000000000000000000000000000000000000000000000000000001000000000000000000000000000800001002000040000000000000000000000000000000001000000000000004000000000000008000000000000000000000000000000102000040000000000000000000000000000000000000000000008000000000000000010000040000",
      "type": "0x0",
      "transactionHash": "0x29a6022b98723246c3bceee9517e2ee09b7a17cde7c3c5d4d574b709e8f8b706",
      "transactionIndex": "0x0",
      "blockHash": "0xd7b7d46406c7774f6ac83e4b3e1e0fb2251036238349b809a053f17b73ac9161",
      "blockNumber": "0x2f3f52a",
      "gasUsed": "0x2f129",
      "effectiveGasPrice": "0xb2d05e00",
      "from": "0x0eae37a737ea288596ae4bd043eb09202e093302",
      "to": "0x0abf81cd4071ba4e42e0a30190d4f75c6adb25be",
      "contractAddress": null
    }
  ],
  "libraries": [],
  "pending": [],
  "returns": {},
  "timestamp": 1743350802,
  "chain": 97,
  "commit": null
}