{
  "transactions": [
    {
      "hash": "0x0d35d68925f3f6d5c66addbe773601b2591e3baf501077a18036a1fbb5efb38d",
      "transactionType": "CALL",
      "contractName": null,
      "contractAddress": "0x138b6e385a251b72830f0540bf54e307b8679112",
      "function": "initialize(bytes)",
      "arguments": [
        "0x0000000000000000000000002b1aaa6c0746e09e61b5a12ed4e7ba62e3644e300000000000000000000000001d81baabf0ac77c42bf1fb77943526ece1aeaa01000000000000000000000000afa8399499b2ee41a04ed98c59db1e0e65cb73c10000000000000000000000004f6b51c8b4f31c7a787024780dadecfd5fc08df7000000000000000000000000000000000000000000000000000000000000000000000000000000000000000000000000000000000000000000000000000000000000000000000000000000000000000000000000000000000000000000000000"
      ],
      "transaction": {
        "from": "0x0eae37a737ea288596ae4bd043eb09202e093302",
        "to": "0x138b6e385a251b72830f0540bf54e307b8679112",
        "gas": "0xf9d2",
        "value": "0x0",
        "input": "0x439fab91000000000000000000000000000000000000000000000000000000000000002000000000000000000000000000000000000000000000000000000000000000e00000000000000000000000002b1aaa6c0746e09e61b5a12ed4e7ba62e3644e300000000000000000000000001d81baabf0ac77c42bf1fb77943526ece1aeaa01000000000000000000000000afa8399499b2ee41a04ed98c59db1e0e65cb73c10000000000000000000000004f6b51c8b4f31c7a787024780dadecfd5fc08df7000000000000000000000000000000000000000000000000000000000000000000000000000000000000000000000000000000000000000000000000000000000000000000000000000000000000000000000000000000000000000000000000",
        "nonce": "0x2c",
        "chainId": "0x61"
      },
      "additionalContracts": [],
      "isFixedGasLimit": false
    }
  ],
  "receipts": [
    {
      "status": "0x1",
      "cumulativeGasUsed": "0x1196f",
      "logs": [],
      "logsBloom": "0x00000000000000000000000000000000000000000000000000000000000000000000000000000000000000000000000000000000000000000000000000000000000000000000000000000000000000000000000000000000000000000000000000000000000000000000000000000000000000000000000000000000000000000000000000000000000000000000000000000000000000000000000000000000000000000000000000000000000000000000000000000000000000000000000000000000000000000000000000000000000000000000000000000000000000000000000000000000000000000000000000000000000000000000000000000000",
      "type": "0x0",
      "transactionHash": "0x0d35d68925f3f6d5c66addbe773601b2591e3baf501077a18036a1fbb5efb38d",
      "transactionIndex": "0x1",
      "blockHash": "0xb319e8321fd4ee7db271027723c825482296a9d2ba2c9e28ad55fcd0e00de8e6",
      "blockNumber": "0x2f3f4db",
      "gasUsed": "0xb4df",
      "effectiveGasPrice": "0x3b9aca00",
      "from": "0x0eae37a737ea288596ae4bd043eb09202e093302",
      "to": "0x138b6e385a251b72830f0540bf54e307b8679112",
      "contractAddress": null
    }
  ],
  "libraries": [],
  "pending": [],
  "returns": {},
  "timestamp": 1743350565,
  "chain": 97,
  "commit": null
}