{
  "transactions": [
    {
      "hash": "0xc6f5eeca3854cd4e74a2e7ef6d2b0c4c62d2a653b099ecae160c54ea5d9c9af6",
      "transactionType": "CALL",
      "contractName": null,
      "contractAddress": "0xdedbdf2f3ee1cb459f2eb0f9a4972a5588158a2d",
      "function": "initialize(bytes)",
      "arguments": [
        "0x0000000000000000000000002b1aaa6c0746e09e61b5a12ed4e7ba62e3644e300000000000000000000000001d81baabf0ac77c42bf1fb77943526ece1aeaa01000000000000000000000000afa8399499b2ee41a04ed98c59db1e0e65cb73c1000000000000000000000000a30d484f7618c1f72f4ff08c29598c2134d7bc21000000000000000000000000000000000000000000000000000000000000000000000000000000000000000000000000000000000000000000000000000000000000000000000000000000000000000000000000000000000000000000000000"
      ],
      "transaction": {
        "from": "0x0eae37a737ea288596ae4bd043eb09202e093302",
        "to": "0xdedbdf2f3ee1cb459f2eb0f9a4972a5588158a2d",
        "gas": "0x44d7f",
        "value": "0x0",
        "input": "0x439fab91000000000000000000000000000000000000000000000000000000000000002000000000000000000000000000000000000000000000000000000000000000e00000000000000000000000002b1aaa6c0746e09e61b5a12ed4e7ba62e3644e300000000000000000000000001d81baabf0ac77c42bf1fb77943526ece1aeaa01000000000000000000000000afa8399499b2ee41a04ed98c59db1e0e65cb73c1000000000000000000000000a30d484f7618c1f72f4ff08c29598c2134d7bc21000000000000000000000000000000000000000000000000000000000000000000000000000000000000000000000000000000000000000000000000000000000000000000000000000000000000000000000000000000000000000000000000",
        "nonce": "0x44",
        "chainId": "0x61"
      },
      "additionalContracts": [],
      "isFixedGasLimit": false
    }
  ],
  "receipts": [
    {
      "status": "0x1",
      "cumulativeGasUsed": "0x109134",
      "logs": [
        {
          "address": "0xdedbdf2f3ee1cb459f2eb0f9a4972a5588158a2d",
          "topics": [
            "0x2f8788117e7eff1d82e926ec794901d17c78024a50270940304540a733656f0d",
            "0x43faa5394fad5da9c07153cbcf22d3e5edf5ab7f31544ba862d2e4bbf2e9a48d",
            "0x0000000000000000000000002b1aaa6c0746e09e61b5a12ed4e7ba62e3644e30",
            "0x0000000000000000000000000eae37a737ea288596ae4bd043eb09202e093302"
          ],
          "data": "0x",
          "blockHash": "0x0c16ff3d727048a361c7f7e5d2ed83368e1eec19a0f971786ff57400c9d70c42",
          "blockNumber": "0x2f3fa7f",
          "transactionHash": "0xc6f5eeca3854cd4e74a2e7ef6d2b0c4c62d2a653b099ecae160c54ea5d9c9af6",
          "transactionIndex": "0x3",
          "logIndex": "0xa",
          "removed": false
        },
        {
          "address": "0xdedbdf2f3ee1cb459f2eb0f9a4972a5588158a2d",
          "topics": [
            "0x2f8788117e7eff1d82e926ec794901d17c78024a50270940304540a733656f0d",
            "0x1acf5ce51fa2b28efde5acae5b7b783900a51ccd000f8f7152d7f921142c5af2",
            "0x000000000000000000000000a30d484f7618c1f72f4ff08c29598c2134d7bc21",
            "0x0000000000000000000000000eae37a737ea288596ae4bd043eb09202e093302"
          ],
          "data": "0x",
          "blockHash": "0x0c16ff3d727048a361c7f7e5d2ed83368e1eec19a0f971786ff57400c9d70c42",
          "blockNumber": "0x2f3fa7f",
          "transactionHash": "0xc6f5eeca3854cd4e74a2e7ef6d2b0c4c62d2a653b099ecae160c54ea5d9c9af6",
          "transactionIndex": "0x3",
          "logIndex": "0xb",
          "removed": false
        },
        {
          "address": "0xdedbdf2f3ee1cb459f2eb0f9a4972a5588158a2d",
          "topics": [
            "0x2f8788117e7eff1d82e926ec794901d17c78024a50270940304540a733656f0d",
            "0x387e6855c418f7449edde8569e1597c13724ffde8b433a88ca59a5014ef61a0c",
            "0x000000000000000000000000a30d484f7618c1f72f4ff08c29598c2134d7bc21",
            "0x0000000000000000000000000eae37a737ea288596ae4bd043eb09202e093302"
          ],
          "data": "0x",
          "blockHash": "0x0c16ff3d727048a361c7f7e5d2ed83368e1eec19a0f971786ff57400c9d70c42",
          "blockNumber": "0x2f3fa7f",
          "transactionHash": "0xc6f5eeca3854cd4e74a2e7ef6d2b0c4c62d2a653b099ecae160c54ea5d9c9af6",
          "transactionIndex": "0x3",
          "logIndex": "0xc",
          "removed": false
        }
      ],
      "logsBloom": "0x00000004000000000000000000000200000000000000002000000000000000000000000001000000000000000000000000000000000000000004000000800000000000000000000000000000000000000000000000000000000000000000000080000000000000200000000000000000000000000008000000000000001000000000000000000000200000000000000000000001000000000000000000000000000800000002000040000000000000000000000000000000001000000000000004000000000000008000000000000000000000000000000102000040000000000000000000000000000000000000000000008000000000000000010000000000",
      "type": "0x0",
      "transactionHash": "0xc6f5eeca3854cd4e74a2e7ef6d2b0c4c62d2a653b099ecae160c54ea5d9c9af6",
      "transactionIndex": "0x3",
      "blockHash": "0x0c16ff3d727048a361c7f7e5d2ed83368e1eec19a0f971786ff57400c9d70c42",
      "blockNumber": "0x2f3fa7f",
      "gasUsed": "0x2f129",
      "effectiveGasPrice": "0x1bf08eb00",
      "from": "0x0eae37a737ea288596ae4bd043eb09202e093302",
      "to": "0xdedbdf2f3ee1cb459f2eb0f9a4972a5588158a2d",
      "contractAddress": null
    }
  ],
  "libraries": [],
  "pending": [],
  "returns": {},
  "timestamp": 1743354897,
  "chain": 97,
  "commit": null
}