{
  "transactions": [
    {
      "hash": "0x10de0a441c4f925d6547b12856bd0b7e3031f2bb36dc93a0ee039e0c9dde8d15",
      "transactionType": "CALL",
      "contractName": null,
      "contractAddress": "0x2b1aaa6c0746e09e61b5a12ed4e7ba62e3644e30",
      "function": "deployFlexiFusion((address,bytes)[])",
      "arguments": [
        "[(0x8A94D51fBb2917d3217E89b8D168B2303C9DBAbA, 0x0000000000000000000000002b1aaa6c0746e09e61b5a12ed4e7ba62e3644e300000000000000000000000001d81baabf0ac77c42bf1fb77943526ece1aeaa01000000000000000000000000afa8399499b2ee41a04ed98c59db1e0e65cb73c1000000000000000000000000000000000000000000000000000000000000000000000000000000000000000023e002ff7c342fc30e1ddc68183c8017faca91b200000000000000000000000000000000000000000000000000000000000000000000000000000000000000000000000000000000000000000000000000000000)]"
      ],
      "transaction": {
        "from": "0x0eae37a737ea288596ae4bd043eb09202e093302",
        "to": "0x2b1aaa6c0746e09e61b5a12ed4e7ba62e3644e30",
        "gas": "0x2f6ef",
        "value": "0x0",
        "input": "0x1585f9da0000000000000000000000000000000000000000000000000000000000000020000000000000000000000000000000000000000000000000000000000000000100000000000000000000000000000000000000000000000000000000000000200000000000000000000000008a94d51fbb2917d3217e89b8d168b2303c9dbaba000000000000000000000000000000000000000000000000000000000000004000000000000000000000000000000000000000000000000000000000000000e00000000000000000000000002b1aaa6c0746e09e61b5a12ed4e7ba62e3644e300000000000000000000000001d81baabf0ac77c42bf1fb77943526ece1aeaa01000000000000000000000000afa8399499b2ee41a04ed98c59db1e0e65cb73c1000000000000000000000000000000000000000000000000000000000000000000000000000000000000000023e002ff7c342fc30e1ddc68183c8017faca91b200000000000000000000000000000000000000000000000000000000000000000000000000000000000000000000000000000000000000000000000000000000",
        "nonce": "0x61",
        "chainId": "0x61"
      },
      "additionalContracts": [
        {
          "transactionType": "CREATE",
          "address": "0x532e712d6f5b9aeb33b567101b44205f9561d37f",
          "initCode": "0x3d602d80600a3d3981f3363d3d373d3d3d363d738a94d51fbb2917d3217e89b8d168b2303c9dbaba5af43d82803e903d91602b57fd5bf3"
        }
      ],
      "isFixedGasLimit": false
    }
  ],
  "receipts": [
    {
      "status": "0x1",
      "cumulativeGasUsed": "0x22575",
      "logs": [
        {
          "address": "0x8a94d51fbb2917d3217e89b8d168b2303c9dbaba",
          "topics": [
            "0x2f8788117e7eff1d82e926ec794901d17c78024a50270940304540a733656f0d",
            "0x7030e08a2209456e1451fb7d9e0501472c4f6b23b0083ef4dc74af97c80a5f7b",
            "0x00000000000000000000000023e002ff7c342fc30e1ddc68183c8017faca91b2",
            "0x0000000000000000000000002b1aaa6c0746e09e61b5a12ed4e7ba62e3644e30"
          ],
          "data": "0x",
          "blockHash": "0xbfdd968a3d3f11578281f26b725a12efa00e0105ec99285f5c6d2c22d3f9674e",
          "blockNumber": "0x2f421e6",
          "transactionHash": "0x10de0a441c4f925d6547b12856bd0b7e3031f2bb36dc93a0ee039e0c9dde8d15",
          "transactionIndex": "0x0",
          "logIndex": "0x0",
          "removed": false
        },
        {
          "address": "0x8a94d51fbb2917d3217e89b8d168b2303c9dbaba",
          "topics": [
            "0x2f8788117e7eff1d82e926ec794901d17c78024a50270940304540a733656f0d",
            "0x387e6855c418f7449edde8569e1597c13724ffde8b433a88ca59a5014ef61a0c",
            "0x00000000000000000000000023e002ff7c342fc30e1ddc68183c8017faca91b2",
            "0x0000000000000000000000002b1aaa6c0746e09e61b5a12ed4e7ba62e3644e30"
          ],
          "data": "0x",
          "blockHash": "0xbfdd968a3d3f11578281f26b725a12efa00e0105ec99285f5c6d2c22d3f9674e",
          "blockNumber": "0x2f421e6",
          "transactionHash": "0x10de0a441c4f925d6547b12856bd0b7e3031f2bb36dc93a0ee039e0c9dde8d15",
          "transactionIndex": "0x0",
          "logIndex": "0x1",
          "removed": false
        }
      ],
      "logsBloom": "0x00000004000002000000000000000000100000000000002000000000000000000080000200000000000000000000000000000000000000000004000000800000000000000000000000000000000000000000000800000000000000000000000000000000000000000000000000000000000000800008000000000000000000000000000000000000000000000000000000000000000000000080000000000000000000000002000000000000000000000000000000000000001001000000000000000000000000000000400000000000000000000000000100000000000000000000000000000000000000000000000000000000000000000000010000000000",
      "type": "0x0",
      "transactionHash": "0x10de0a441c4f925d6547b12856bd0b7e3031f2bb36dc93a0ee039e0c9dde8d15",
      "transactionIndex": "0x0",
      "blockHash": "0xbfdd968a3d3f11578281f26b725a12efa00e0105ec99285f5c6d2c22d3f9674e",
      "blockNumber": "0x2f421e6",
      "gasUsed": "0x22575",
      "effectiveGasPrice": "0xb2d05e00",
      "from": "0x0eae37a737ea288596ae4bd043eb09202e093302",
      "to": "0x2b1aaa6c0746e09e61b5a12ed4e7ba62e3644e30",
      "contractAddress": null
    }
  ],
  "libraries": [],
  "pending": [],
  "returns": {},
  "timestamp": 1743385156,
  "chain": 97,
  "commit": null
}