{
  "transactions": [
    {
      "hash": "0x9891038902afe46b8ffcf7910b8fc802a76b63bd3881bcb8daeba2076438446c",
      "transactionType": "CALL",
      "contractName": null,
      "contractAddress": "0x2b1aaa6c0746e09e61b5a12ed4e7ba62e3644e30",
      "function": "deployFlexiFusion((address,bytes)[])",
      "arguments": [
        "[(0x8A94D51fBb2917d3217E89b8D168B2303C9DBAbA, 0x0000000000000000000000002b1aaa6c0746e09e61b5a12ed4e7ba62e3644e300000000000000000000000001d81baabf0ac77c42bf1fb77943526ece1aeaa01000000000000000000000000afa8399499b2ee41a04ed98c59db1e0e65cb73c100000000000000000000000000000000000000000000000000000000000000000000000000000000000000000124a0df949a7e934bdd0591830320e99f2e215d00000000000000000000000000000000000000000000000000000000000000000000000000000000000000000000000000000000000000000000000000000000)]"
      ],
      "transaction": {
        "from": "0x0eae37a737ea288596ae4bd043eb09202e093302",
        "to": "0x2b1aaa6c0746e09e61b5a12ed4e7ba62e3644e30",
        "gas": "0x39544",
        "value": "0x0",
        "input": "0x1585f9da0000000000000000000000000000000000000000000000000000000000000020000000000000000000000000000000000000000000000000000000000000000100000000000000000000000000000000000000000000000000000000000000200000000000000000000000008a94d51fbb2917d3217e89b8d168b2303c9dbaba000000000000000000000000000000000000000000000000000000000000004000000000000000000000000000000000000000000000000000000000000000e00000000000000000000000002b1aaa6c0746e09e61b5a12ed4e7ba62e3644e300000000000000000000000001d81baabf0ac77c42bf1fb77943526ece1aeaa01000000000000000000000000afa8399499b2ee41a04ed98c59db1e0e65cb73c100000000000000000000000000000000000000000000000000000000000000000000000000000000000000000124a0df949a7e934bdd0591830320e99f2e215d00000000000000000000000000000000000000000000000000000000000000000000000000000000000000000000000000000000000000000000000000000000",
        "nonce": "0x51",
        "chainId": "0x61"
      },
      "additionalContracts": [
        {
          "transactionType": "CREATE",
          "address": "0xe37617c3fa0baa3c87d59fe80680584f5510a886",
          "initCode": "0x3d602d80600a3d3981f3363d3d373d3d3d363d738a94d51fbb2917d3217e89b8d168b2303c9dbaba5af43d82803e903d91602b57fd5bf3"
        }
      ],
      "isFixedGasLimit": false
    }
  ],
  "receipts": [
    {
      "status": "0x1",
      "cumulativeGasUsed": "0x27331",
      "logs": [
        {
          "address": "0x8a94d51fbb2917d3217e89b8d168b2303c9dbaba",
          "topics": [
            "0x2f8788117e7eff1d82e926ec794901d17c78024a50270940304540a733656f0d",
            "0x7030e08a2209456e1451fb7d9e0501472c4f6b23b0083ef4dc74af97c80a5f7b",
            "0x0000000000000000000000000124a0df949a7e934bdd0591830320e99f2e215d",
            "0x0000000000000000000000002b1aaa6c0746e09e61b5a12ed4e7ba62e3644e30"
          ],
          "data": "0x",
          "blockHash": "0xdf541d99397972a89873dd3afbd196ddb879370f9107aa913a26520c2915cc7f",
          "blockNumber": "0x2f400a0",
          "transactionHash": "0x9891038902afe46b8ffcf7910b8fc802a76b63bd3881bcb8daeba2076438446c",
          "transactionIndex": "0x0",
          "logIndex": "0x0",
          "removed": false
        },
        {
          "address": "0x8a94d51fbb2917d3217e89b8d168b2303c9dbaba",
          "topics": [
            "0x2f8788117e7eff1d82e926ec794901d17c78024a50270940304540a733656f0d",
            "0x387e6855c418f7449edde8569e1597c13724ffde8b433a88ca59a5014ef61a0c",
            "0x0000000000000000000000000124a0df949a7e934bdd0591830320e99f2e215d",
            "0x0000000000000000000000002b1aaa6c0746e09e61b5a12ed4e7ba62e3644e30"
          ],
          "data": "0x",
          "blockHash": "0xdf541d99397972a89873dd3afbd196ddb879370f9107aa913a26520c2915cc7f",
          "blockNumber": "0x2f400a0",
          "transactionHash": "0x9891038902afe46b8ffcf7910b8fc802a76b63bd3881bcb8daeba2076438446c",
          "transactionIndex": "0x0",
          "logIndex": "0x1",
          "removed": false
        }
      ],
      "logsBloom": "0x00000004000002000000000000000200100000000000002000000000000000000000000200000000000000000000000000000000000000000004000000800000000000000000000000000000000000000000000800000000000000000000000000000000000000000000000000000000000000800008000000000000000000000000000000000000000000000000000000000000000000000000000000000000000000000002000000000000000000000000000000000000001001000010000000000000008000000000000000000000000000000000000100000000000000000000000000000000000000000000000000000000000000000000010000000000",
      "type": "0x0",
      "transactionHash": "0x9891038902afe46b8ffcf7910b8fc802a76b63bd3881bcb8daeba2076438446c",
      "transactionIndex": "0x0",
      "blockHash": "0xdf541d99397972a89873dd3afbd196ddb879370f9107aa913a26520c2915cc7f",
      "blockNumber": "0x2f400a0",
      "gasUsed": "0x27331",
      "effectiveGasPrice": "0x2540be400",
      "from": "0x0eae37a737ea288596ae4bd043eb09202e093302",
      "to": "0x2b1aaa6c0746e09e61b5a12ed4e7ba62e3644e30",
      "contractAddress": null
    }
  ],
  "libraries": [],
  "pending": [],
  "returns": {},
  "timestamp": 1743359603,
  "chain": 97,
  "commit": null
}