{
  "transactions": [
    {
      "hash": "0xcb30e9ed1dc8cc3c62b710a9b8ae2640464a6c5a6b14042951bf5828d32ddf86",
      "transactionType": "CALL",
      "contractName": null,
      "contractAddress": "0x2b1aaa6c0746e09e61b5a12ed4e7ba62e3644e30",
      "function": "deployFlexiFusion((address,bytes)[])",
      "arguments": [
        "[(0x8A94D51fBb2917d3217E89b8D168B2303C9DBAbA, 0x0000000000000000000000002b1aaa6c0746e09e61b5a12ed4e7ba62e3644e300000000000000000000000001d81baabf0ac77c42bf1fb77943526ece1aeaa01000000000000000000000000afa8399499b2ee41a04ed98c59db1e0e65cb73c1000000000000000000000000a30d484f7618c1f72f4ff08c29598c2134d7bc21000000000000000000000000000000000000000000000000000000000000000000000000000000000000000000000000000000000000000000000000000000000000000000000000000000000000000000000000000000000000000000000000)]"
      ],
      "transaction": {
        "from": "0x0eae37a737ea288596ae4bd043eb09202e093302",
        "to": "0x2b1aaa6c0746e09e61b5a12ed4e7ba62e3644e30",
        "gas": "0x2f6ef",
        "value": "0x0",
        "input": "0x1585f9da0000000000000000000000000000000000000000000000000000000000000020000000000000000000000000000000000000000000000000000000000000000100000000000000000000000000000000000000000000000000000000000000200000000000000000000000008a94d51fbb2917d3217e89b8d168b2303c9dbaba000000000000000000000000000000000000000000000000000000000000004000000000000000000000000000000000000000000000000000000000000000e00000000000000000000000002b1aaa6c0746e09e61b5a12ed4e7ba62e3644e300000000000000000000000001d81baabf0ac77c42bf1fb77943526ece1aeaa01000000000000000000000000afa8399499b2ee41a04ed98c59db1e0e65cb73c1000000000000000000000000a30d484f7618c1f72f4ff08c29598c2134d7bc21000000000000000000000000000000000000000000000000000000000000000000000000000000000000000000000000000000000000000000000000000000000000000000000000000000000000000000000000000000000000000000000000",
        "nonce": "0x43",
        "chainId": "0x61"
      },
      "additionalContracts": [
        {
          "transactionType": "CREATE",
          "address": "0xdedbdf2f3ee1cb459f2eb0f9a4972a5588158a2d",
          "initCode": "0x3d602d80600a3d3981f3363d3d373d3d3d363d738a94d51fbb2917d3217e89b8d168b2303c9dbaba5af43d82803e903d91602b57fd5bf3"
        }
      ],
      "isFixedGasLimit": false
    }
  ],
  "receipts": [
    {
      "status": "0x1",
      "cumulativeGasUsed": "0x2d9fe",
      "logs": [
        {
          "address": "0x8a94d51fbb2917d3217e89b8d168b2303c9dbaba",
          "topics": [
            "0x2f8788117e7eff1d82e926ec794901d17c78024a50270940304540a733656f0d",
            "0x1acf5ce51fa2b28efde5acae5b7b783900a51ccd000f8f7152d7f921142c5af2",
            "0x000000000000000000000000a30d484f7618c1f72f4ff08c29598c2134d7bc21",
            "0x0000000000000000000000002b1aaa6c0746e09e61b5a12ed4e7ba62e3644e30"
          ],
          "data": "0x",
          "blockHash": "0xb6997dce4a8b8029c0fd6cfde89ca9b4464565960ba9e7e391c4bae5bf1c2488",
          "blockNumber": "0x2f3fa51",
          "transactionHash": "0xcb30e9ed1dc8cc3c62b710a9b8ae2640464a6c5a6b14042951bf5828d32ddf86",
          "transactionIndex": "0x1",
          "logIndex": "0x1",
          "removed": false
        },
        {
          "address": "0x8a94d51fbb2917d3217e89b8d168b2303c9dbaba",
          "topics": [
            "0x2f8788117e7eff1d82e926ec794901d17c78024a50270940304540a733656f0d",
            "0x387e6855c418f7449edde8569e1597c13724ffde8b433a88ca59a5014ef61a0c",
            "0x000000000000000000000000a30d484f7618c1f72f4ff08c29598c2134d7bc21",
            "0x0000000000000000000000002b1aaa6c0746e09e61b5a12ed4e7ba62e3644e30"
          ],
          "data": "0x",
          "blockHash": "0xb6997dce4a8b8029c0fd6cfde89ca9b4464565960ba9e7e391c4bae5bf1c2488",
          "blockNumber": "0x2f3fa51",
          "transactionHash": "0xcb30e9ed1dc8cc3c62b710a9b8ae2640464a6c5a6b14042951bf5828d32ddf86",
          "transactionIndex": "0x1",
          "logIndex": "0x2",
          "removed": false
        }
      ],
      "logsBloom": "0x00000004000000000000000000000000100000000000002000000000000000000000000001000000000000000000000000000000000000000004000000800000000000000000000000000000000000000000000800000000000000000000000000000000000000000000000000000000000000000008000000000000001000000000000000000000000000000000000000000001000000000000000000000000000800000002000000000000000000000000000000000000001001000000000000000000000000000000000000000000000000000000000102000000000000000000000000000000000000000000000000000000000000000000010000000000",
      "type": "0x0",
      "transactionHash": "0xcb30e9ed1dc8cc3c62b710a9b8ae2640464a6c5a6b14042951bf5828d32ddf86",
      "transactionIndex": "0x1",
      "blockHash": "0xb6997dce4a8b8029c0fd6cfde89ca9b4464565960ba9e7e391c4bae5bf1c2488",
      "blockNumber": "0x2f3fa51",
      "gasUsed": "0x22575",
      "effectiveGasPrice": "0x12a05f200",
      "from": "0x0eae37a737ea288596ae4bd043eb09202e093302",
      "to": "0x2b1aaa6c0746e09e61b5a12ed4e7ba62e3644e30",
      "contractAddress": null
    }
  ],
  "libraries": [],
  "pending": [],
  "returns": {},
  "timestamp": 1743354758,
  "chain": 97,
  "commit": null
}