{
  "transactions": [
    {
      "hash": "0x4a4382214a0bf9e3a884c0ce08d3867dc77e6df9fcf11485471a261aecb28c0d",
      "transactionType": "CALL",
      "contractName": null,
      "contractAddress": "0x2b1aaa6c0746e09e61b5a12ed4e7ba62e3644e30",
      "function": "deployFlexiFusion((address,bytes)[])",
      "arguments": [
        "[(0x8A94D51fBb2917d3217E89b8D168B2303C9DBAbA, 0x0000000000000000000000002b1aaa6c0746e09e61b5a12ed4e7ba62e3644e300000000000000000000000001d81baabf0ac77c42bf1fb77943526ece1aeaa01000000000000000000000000afa8399499b2ee41a04ed98c59db1e0e65cb73c10000000000000000000000004f6b51c8b4f31c7a787024780dadecfd5fc08df7000000000000000000000000000000000000000000000000000000000000000000000000000000000000000000000000000000000000000000000000000000000000000000000000000000000000000000000000000000000000000000000000)]"
      ],
      "transaction": {
        "from": "0x0eae37a737ea288596ae4bd043eb09202e093302",
        "to": "0x2b1aaa6c0746e09e61b5a12ed4e7ba62e3644e30",
        "gas": "0x2f6ef",
        "value": "0x0",
        "input": "0x1585f9da0000000000000000000000000000000000000000000000000000000000000020000000000000000000000000000000000000000000000000000000000000000100000000000000000000000000000000000000000000000000000000000000200000000000000000000000008a94d51fbb2917d3217e89b8d168b2303c9dbaba000000000000000000000000000000000000000000000000000000000000004000000000000000000000000000000000000000000000000000000000000000e00000000000000000000000002b1aaa6c0746e09e61b5a12ed4e7ba62e3644e300000000000000000000000001d81baabf0ac77c42bf1fb77943526ece1aeaa01000000000000000000000000afa8399499b2ee41a04ed98c59db1e0e65cb73c10000000000000000000000004f6b51c8b4f31c7a787024780dadecfd5fc08df7000000000000000000000000000000000000000000000000000000000000000000000000000000000000000000000000000000000000000000000000000000000000000000000000000000000000000000000000000000000000000000000000",
        "nonce": "0x22",
        "chainId": "0x61"
      },
      "additionalContracts": [
        {
          "transactionType": "CREATE",
          "address": "0x138b6e385a251b72830f0540bf54e307b8679112",
          "initCode": "0x3d602d80600a3d3981f3363d3d373d3d3d363d738a94d51fbb2917d3217e89b8d168b2303c9dbaba5af43d82803e903d91602b57fd5bf3"
        }
      ],
      "isFixedGasLimit": false
    }
  ],
  "receipts": [
    {
      "status": "0x1",
      "cumulativeGasUsed": "0x22575",
      "logs": [
        {
          "address": "0x8a94d51fbb2917d3217e89b8d168b2303c9dbaba",
          "topics": [
            "0x2f8788117e7eff1d82e926ec794901d17c78024a50270940304540a733656f0d",
            "0x1acf5ce51fa2b28efde5acae5b7b783900a51ccd000f8f7152d7f921142c5af2",
            "0x0000000000000000000000004f6b51c8b4f31c7a787024780dadecfd5fc08df7",
            "0x0000000000000000000000002b1aaa6c0746e09e61b5a12ed4e7ba62e3644e30"
          ],
          "data": "0x",
          "blockHash": "0x96f2754f2aec5dfbddc60d568dd0fe5a98c95559cde4a833dbf11de7083a13d5",
          "blockNumber": "0x2f3f04c",
          "transactionHash": "0x4a4382214a0bf9e3a884c0ce08d3867dc77e6df9fcf11485471a261aecb28c0d",
          "transactionIndex": "0x0",
          "logIndex": "0x0",
          "removed": false
        },
        {
          "address": "0x8a94d51fbb2917d3217e89b8d168b2303c9dbaba",
          "topics": [
            "0x2f8788117e7eff1d82e926ec794901d17c78024a50270940304540a733656f0d",
            "0x387e6855c418f7449edde8569e1597c13724ffde8b433a88ca59a5014ef61a0c",
            "0x0000000000000000000000004f6b51c8b4f31c7a787024780dadecfd5fc08df7",
            "0x0000000000000000000000002b1aaa6c0746e09e61b5a12ed4e7ba62e3644e30"
          ],
          "data": "0x",
          "blockHash": "0x96f2754f2aec5dfbddc60d568dd0fe5a98c95559cde4a833dbf11de7083a13d5",
          "blockNumber": "0x2f3f04c",
          "transactionHash": "0x4a4382214a0bf9e3a884c0ce08d3867dc77e6df9fcf11485471a261aecb28c0d",
          "transactionIndex": "0x0",
          "logIndex": "0x1",
          "removed": false
        }
      ],
      "logsBloom": "0x00000004000000000000000000000000100000000000002000000000000000000000000000000000000000000000000000000000000000000004000000800000000000000000000000000000000000000000000800000000000000000000000000000000000000000000000000000000000000000008000000000000000000000000000000000000000000000000000000000001000000000000000000000000000800000002000000000000000000000000000000000000001001000000000000000000000000000000000000000000000000000000001102000000000000000000000000000040000000000000000000000000000000000000410000000000",
      "type": "0x0",
      "transactionHash": "0x4a4382214a0bf9e3a884c0ce08d3867dc77e6df9fcf11485471a261aecb28c0d",
      "transactionIndex": "0x0",
      "blockHash": "0x96f2754f2aec5dfbddc60d568dd0fe5a98c95559cde4a833dbf11de7083a13d5",
      "blockNumber": "0x2f3f04c",
      "gasUsed": "0x22575",
      "effectiveGasPrice": "0x289183680",
      "from": "0x0eae37a737ea288596ae4bd043eb09202e093302",
      "to": "0x2b1aaa6c0746e09e61b5a12ed4e7ba62e3644e30",
      "contractAddress": null
    }
  ],
  "libraries": [],
  "pending": [],
  "returns": {},
  "timestamp": 1743347064,
  "chain": 97,
  "commit": null
}