{
  "transactions": [
    {
      "hash": "0xe16263e253c4616da278f44c1e33b575a322902d0e1fed71070fbb0652529bc7",
      "transactionType": "CALL",
      "contractName": null,
      "contractAddress": "0x0124a0df949a7e934bdd0591830320e99f2e215d",
      "function": "initialize(bytes)",
      "arguments": [
        "0x0000000000000000000000001d81baabf0ac77c42bf1fb77943526ece1aeaa01000000000000000000000000afa8399499b2ee41a04ed98c59db1e0e65cb73c10000000000000000000000008e87e8e91e569dc451b57a6ff8a87f56ea8afde8000000000000000000000000cb380a182bd0c7b5290768838131713fbb90690b0000000000000000000000000000000000000000000000000cb2bba6f17b800000000000000000000000000000000000000000000000000000038d7ea4c68000000000000000000000000000e37617c3fa0baa3c87d59fe80680584f5510a88600000000000000000000000000000000000000000000000000000000000000000000000000000000000000000eae37a737ea288596ae4bd043eb09202e093302"
      ],
      "transaction": {
        "from": "0x0eae37a737ea288596ae4bd043eb09202e093302",
        "to": "0x0124a0df949a7e934bdd0591830320e99f2e215d",
        "gas": "0x482ca",
        "value": "0x0",
        "input": "0x439fab91000000000000000000000000000000000000000000000000000000000000002000000000000000000000000000000000000000000000000000000000000001200000000000000000000000001d81baabf0ac77c42bf1fb77943526ece1aeaa01000000000000000000000000afa8399499b2ee41a04ed98c59db1e0e65cb73c10000000000000000000000008e87e8e91e569dc451b57a6ff8a87f56ea8afde8000000000000000000000000cb380a182bd0c7b5290768838131713fbb90690b0000000000000000000000000000000000000000000000000cb2bba6f17b800000000000000000000000000000000000000000000000000000038d7ea4c68000000000000000000000000000e37617c3fa0baa3c87d59fe80680584f5510a88600000000000000000000000000000000000000000000000000000000000000000000000000000000000000000eae37a737ea288596ae4bd043eb09202e093302",
        "nonce": "0x54",
        "chainId": "0x61"
      },
      "additionalContracts": [],
      "isFixedGasLimit": false
    }
  ],
  "receipts": [
    {
      "status": "0x1",
      "cumulativeGasUsed": "0x3440d",
      "logs": [],
      "logsBloom": "0x00000000000000000000000000000000000000000000000000000000000000000000000000000000000000000000000000000000000000000000000000000000000000000000000000000000000000000000000000000000000000000000000000000000000000000000000000000000000000000000000000000000000000000000000000000000000000000000000000000000000000000000000000000000000000000000000000000000000000000000000000000000000000000000000000000000000000000000000000000000000000000000000000000000000000000000000000000000000000000000000000000000000000000000000000000000",
      "type": "0x0",
      "transactionHash": "0xe16263e253c4616da278f44c1e33b575a322902d0e1fed71070fbb0652529bc7",
      "transactionIndex": "0x0",
      "blockHash": "0x2d738e91b2a4171d9b56e317f77769c31e59f6ef2b5680e62235b64f4a94d377",
      "blockNumber": "0x2f40602",
      "gasUsed": "0x3440d",
      "effectiveGasPrice": "0x12a05f200",
      "from": "0x0eae37a737ea288596ae4bd043eb09202e093302",
      "to": "0x0124a0df949a7e934bdd0591830320e99f2e215d",
      "contractAddress": null
    }
  ],
  "libraries": [],
  "pending": [],
  "returns": {},
  "timestamp": 1743363735,
  "chain": 97,
  "commit": null
}