{
  "transactions": [
    {
      "hash": "0xf2d3ae0f3232ec58bc347b1b59ddabac5a933b711b2f5d19068c0ae006f42490",
      "transactionType": "CALL",
      "contractName": null,
      "contractAddress": "0x136926c71fef86bb9122b6ef87a8a3cfc1311623",
      "function": "initialize(bytes)",
      "arguments": [
        "0x0000000000000000000000001d81baabf0ac77c42bf1fb77943526ece1aeaa01000000000000000000000000afa8399499b2ee41a04ed98c59db1e0e65cb73c10000000000000000000000008e87e8e91e569dc451b57a6ff8a87f56ea8afde8000000000000000000000000cb380a182bd0c7b5290768838131713fbb90690b0000000000000000000000000000000000000000000000000cb2bba6f17b800000000000000000000000000000000000000000000000000000038d7ea4c6800000000000000000000000000056a2e2ad5a05d0792fbe73bbff3bbf87d7b5402600000000000000000000000000000000000000000000000000000000000000000000000000000000000000000eae37a737ea288596ae4bd043eb09202e093302"
      ],
      "transaction": {
        "from": "0x0eae37a737ea288596ae4bd043eb09202e093302",
        "to": "0x136926c71fef86bb9122b6ef87a8a3cfc1311623",
        "gas": "0x54536",
        "value": "0x0",
        "input": "0x439fab91000000000000000000000000000000000000000000000000000000000000002000000000000000000000000000000000000000000000000000000000000001200000000000000000000000001d81baabf0ac77c42bf1fb77943526ece1aeaa01000000000000000000000000afa8399499b2ee41a04ed98c59db1e0e65cb73c10000000000000000000000008e87e8e91e569dc451b57a6ff8a87f56ea8afde8000000000000000000000000cb380a182bd0c7b5290768838131713fbb90690b0000000000000000000000000000000000000000000000000cb2bba6f17b800000000000000000000000000000000000000000000000000000038d7ea4c6800000000000000000000000000056a2e2ad5a05d0792fbe73bbff3bbf87d7b5402600000000000000000000000000000000000000000000000000000000000000000000000000000000000000000eae37a737ea288596ae4bd043eb09202e093302",
        "nonce": "0x5e",
        "chainId": "0x61"
      },
      "additionalContracts": [],
      "isFixedGasLimit": false
    }
  ],
  "receipts": [
    {
      "status": "0x1",
      "cumulativeGasUsed": "0x39a8a",
      "logs": [],
      "logsBloom": "0x00000000000000000000000000000000000000000000000000000000000000000000000000000000000000000000000000000000000000000000000000000000000000000000000000000000000000000000000000000000000000000000000000000000000000000000000000000000000000000000000000000000000000000000000000000000000000000000000000000000000000000000000000000000000000000000000000000000000000000000000000000000000000000000000000000000000000000000000000000000000000000000000000000000000000000000000000000000000000000000000000000000000000000000000000000000",
      "type": "0x0",
      "transactionHash": "0xf2d3ae0f3232ec58bc347b1b59ddabac5a933b711b2f5d19068c0ae006f42490",
      "transactionIndex": "0x0",
      "blockHash": "0x9f9530887d3d8e634a5c50b8be3605fb1caa24ad072bc05a233b564ec189734e",
      "blockNumber": "0x2f41f22",
      "gasUsed": "0x39a8a",
      "effectiveGasPrice": "0x12a05f200",
      "from": "0x0eae37a737ea288596ae4bd043eb09202e093302",
      "to": "0x136926c71fef86bb9122b6ef87a8a3cfc1311623",
      "contractAddress": null
    }
  ],
  "libraries": [],
  "pending": [],
  "returns": {},
  "timestamp": 1743383032,
  "chain": 97,
  "commit": null
}