{
  "transactions": [
    {
      "hash": "0x5368406b6f9d40762d8cd035b9106b58467d0ebe17dcf06f4dba5bc57274a7b5",
      "transactionType": "CALL",
      "contractName": null,
      "contractAddress": "0x23e002ff7c342fc30e1ddc68183c8017faca91b2",
      "function": "initialize(bytes)",
      "arguments": [
        "0x0000000000000000000000001d81baabf0ac77c42bf1fb77943526ece1aeaa01000000000000000000000000afa8399499b2ee41a04ed98c59db1e0e65cb73c10000000000000000000000008e87e8e91e569dc451b57a6ff8a87f56ea8afde800000000000000000000000016ece41f255204f5c98f6e2600bfba83a016e2fe0000000000000000000000000000000000000000000000000cb2bba6f17b800000000000000000000000000000000000000000000000000000038d7ea4c68000000000000000000000000000532e712d6f5b9aeb33b567101b44205f9561d37f00000000000000000000000000000000000000000000000000000000000000000000000000000000000000000eae37a737ea288596ae4bd043eb09202e093302"
      ],
      "transaction": {
        "from": "0x0eae37a737ea288596ae4bd043eb09202e093302",
        "to": "0x23e002ff7c342fc30e1ddc68183c8017faca91b2",
        "gas": "0x475fd",
        "value": "0x0",
        "input": "0x439fab91000000000000000000000000000000000000000000000000000000000000002000000000000000000000000000000000000000000000000000000000000001200000000000000000000000001d81baabf0ac77c42bf1fb77943526ece1aeaa01000000000000000000000000afa8399499b2ee41a04ed98c59db1e0e65cb73c10000000000000000000000008e87e8e91e569dc451b57a6ff8a87f56ea8afde800000000000000000000000016ece41f255204f5c98f6e2600bfba83a016e2fe0000000000000000000000000000000000000000000000000cb2bba6f17b800000000000000000000000000000000000000000000000000000038d7ea4c68000000000000000000000000000532e712d6f5b9aeb33b567101b44205f9561d37f00000000000000000000000000000000000000000000000000000000000000000000000000000000000000000eae37a737ea288596ae4bd043eb09202e093302",
        "nonce": "0x63",
        "chainId": "0x61"
      },
      "additionalContracts": [],
      "isFixedGasLimit": false
    }
  ],
  "receipts": [
    {
      "status": "0x1",
      "cumulativeGasUsed": "0x38cd0",
      "logs": [],
      "logsBloom": "0x00000000000000000000000000000000000000000000000000000000000000000000000000000000000000000000000000000000000000000000000000000000000000000000000000000000000000000000000000000000000000000000000000000000000000000000000000000000000000000000000000000000000000000000000000000000000000000000000000000000000000000000000000000000000000000000000000000000000000000000000000000000000000000000000000000000000000000000000000000000000000000000000000000000000000000000000000000000000000000000000000000000000000000000000000000000",
      "type": "0x0",
      "transactionHash": "0x5368406b6f9d40762d8cd035b9106b58467d0ebe17dcf06f4dba5bc57274a7b5",
      "transactionIndex": "0x1",
      "blockHash": "0x88bffad5a4f342faec323290c995f14cbcc468531fa1eee9f59980954a8da825",
      "blockNumber": "0x2f4223c",
      "gasUsed": "0x33ac8",
      "effectiveGasPrice": "0xb2d05e00",
      "from": "0x0eae37a737ea288596ae4bd043eb09202e093302",
      "to": "0x23e002ff7c342fc30e1ddc68183c8017faca91b2",
      "contractAddress": null
    }
  ],
  "libraries": [],
  "pending": [],
  "returns": {},
  "timestamp": 1743385413,
  "chain": 97,
  "commit": null
}