{
  "transactions": [
    {
      "hash": "0x50b52bc968e129a249531d260d7e081be6012c918c1a21a9ca5bb86b99792cf9",
      "transactionType": "CALL",
      "contractName": null,
      "contractAddress": "0x4f6b51c8b4f31c7a787024780dadecfd5fc08df7",
      "function": "initialize(bytes)",
      "arguments": [
        "0x000000000000000000000000138b6e385a251b72830f0540bf54e307b8679112000000000000000000000000d5bc5f8ef51efe76462177133bb671c8cb8668940000000000000000000000001d81baabf0ac77c42bf1fb77943526ece1aeaa01000000000000000000000000afa8399499b2ee41a04ed98c59db1e0e65cb73c1"
      ],
      "transaction": {
        "from": "0x0eae37a737ea288596ae4bd043eb09202e093302",
        "to": "0x4f6b51c8b4f31c7a787024780dadecfd5fc08df7",
        "gas": "0x2661c",
        "value": "0x0",
        "input": "0x439fab9100000000000000000000000000000000000000000000000000000000000000200000000000000000000000000000000000000000000000000000000000000080000000000000000000000000138b6e385a251b72830f0540bf54e307b8679112000000000000000000000000d5bc5f8ef51efe76462177133bb671c8cb8668940000000000000000000000001d81baabf0ac77c42bf1fb77943526ece1aeaa01000000000000000000000000afa8399499b2ee41a04ed98c59db1e0e65cb73c1",
        "nonce": "0x23",
        "chainId": "0x61"
      },
      "additionalContracts": [],
      "isFixedGasLimit": false
    }
  ],
  "receipts": [
    {
      "status": "0x1",
      "cumulativeGasUsed": "0x49da5",
      "logs": [],
      "logsBloom": "0x00000000000000000000000000000000000000000000000000000000000000000000000000000000000000000000000000000000000000000000000000000000000000000000000000000000000000000000000000000000000000000000000000000000000000000000000000000000000000000000000000000000000000000000000000000000000000000000000000000000000000000000000000000000000000000000000000000000000000000000000000000000000000000000000000000000000000000000000000000000000000000000000000000000000000000000000000000000000000000000000000000000000000000000000000000000",
      "type": "0x0",
      "transactionHash": "0x50b52bc968e129a249531d260d7e081be6012c918c1a21a9ca5bb86b99792cf9",
      "transactionIndex": "0x2",
      "blockHash": "0xaaed9a2bd6766e2b55587c39b27335db5ef8505364aa94f5d2a8fbca5baffe4c",
      "blockNumber": "0x2f3f0db",
      "gasUsed": "0x1bc9c",
      "effectiveGasPrice": "0xb2d05e00",
      "from": "0x0eae37a737ea288596ae4bd043eb09202e093302",
      "to": "0x4f6b51c8b4f31c7a787024780dadecfd5fc08df7",
      "contractAddress": null
    }
  ],
  "libraries": [],
  "pending": [],
  "returns": {},
  "timestamp": 1743347492,
  "chain": 97,
  "commit": null
}