{
  "transactions": [
    {
      "hash": "0xdb457bf15fa72b94e35f51e5fb694085e1a26bfc81ef83553081d1536a2953ab",
      "transactionType": "CALL",
      "contractName": null,
      "contractAddress": "0x2b1aaa6c0746e09e61b5a12ed4e7ba62e3644e30",
      "function": "deployFlexiFusion((address,bytes)[])",
      "arguments": [
        "[(0x8A94D51fBb2917d3217E89b8D168B2303C9DBAbA, 0x0000000000000000000000002b1aaa6c0746e09e61b5a12ed4e7ba62e3644e300000000000000000000000001d81baabf0ac77c42bf1fb77943526ece1aeaa01000000000000000000000000afa8399499b2ee41a04ed98c59db1e0e65cb73c1000000000000000000000000a91aaa3708c26f8b48f46be16c0726c926362ab8000000000000000000000000000000000000000000000000000000000000000000000000000000000000000000000000000000000000000000000000000000000000000000000000000000000000000000000000000000000000000000000000)]"
      ],
      "transaction": {
        "from": "0x0eae37a737ea288596ae4bd043eb09202e093302",
        "to": "0x2b1aaa6c0746e09e61b5a12ed4e7ba62e3644e30",
        "gas": "0x4b160",
        "value": "0x0",
        "input": "0x1585f9da0000000000000000000000000000000000000000000000000000000000000020000000000000000000000000000000000000000000000000000000000000000100000000000000000000000000000000000000000000000000000000000000200000000000000000000000008a94d51fbb2917d3217e89b8d168b2303c9dbaba000000000000000000000000000000000000000000000000000000000000004000000000000000000000000000000000000000000000000000000000000000e00000000000000000000000002b1aaa6c0746e09e61b5a12ed4e7ba62e3644e300000000000000000000000001d81baabf0ac77c42bf1fb77943526ece1aeaa01000000000000000000000000afa8399499b2ee41a04ed98c59db1e0e65cb73c1000000000000000000000000a91aaa3708c26f8b48f46be16c0726c926362ab8000000000000000000000000000000000000000000000000000000000000000000000000000000000000000000000000000000000000000000000000000000000000000000000000000000000000000000000000000000000000000000000000",
        "nonce": "0x13",
        "chainId": "0x61"
      },
      "additionalContracts": [
        {
          "transactionType": "CREATE",
          "address": "0x79563847a12d8460feecb59da5cbee886496a993",
          "initCode": "0x3d602d80600a3d3981f3363d3d373d3d3d363d738a94d51fbb2917d3217e89b8d168b2303c9dbaba5af43d82803e903d91602b57fd5bf3"
        }
      ],
      "isFixedGasLimit": false
    }
  ],
  "receipts": [
    {
      "status": "0x1",
      "cumulativeGasUsed": "0x5020d",
      "logs": [
        {
          "address": "0x8a94d51fbb2917d3217e89b8d168b2303c9dbaba",
          "topics": [
            "0x2f8788117e7eff1d82e926ec794901d17c78024a50270940304540a733656f0d",
            "0x43faa5394fad5da9c07153cbcf22d3e5edf5ab7f31544ba862d2e4bbf2e9a48d",
            "0x0000000000000000000000002b1aaa6c0746e09e61b5a12ed4e7ba62e3644e30",
            "0x0000000000000000000000002b1aaa6c0746e09e61b5a12ed4e7ba62e3644e30"
          ],
          "data": "0x",
          "blockHash": "0x5c23ec69c3b67648dfd949c81a1c6239043ba8c854ae12c7846ca4bf0f4d4224",
          "blockNumber": "0x2f3dfe7",
          "transactionHash": "0xdb457bf15fa72b94e35f51e5fb694085e1a26bfc81ef83553081d1536a2953ab",
          "transactionIndex": "0x2",
          "logIndex": "0x2",
          "removed": false
        },
        {
          "address": "0x8a94d51fbb2917d3217e89b8d168b2303c9dbaba",
          "topics": [
            "0x2f8788117e7eff1d82e926ec794901d17c78024a50270940304540a733656f0d",
            "0x1acf5ce51fa2b28efde5acae5b7b783900a51ccd000f8f7152d7f921142c5af2",
            "0x000000000000000000000000a91aaa3708c26f8b48f46be16c0726c926362ab8",
            "0x0000000000000000000000002b1aaa6c0746e09e61b5a12ed4e7ba62e3644e30"
          ],
          "data": "0x",
          "blockHash": "0x5c23ec69c3b67648dfd949c81a1c6239043ba8c854ae12c7846ca4bf0f4d4224",
          "blockNumber": "0x2f3dfe7",
          "transactionHash": "0xdb457bf15fa72b94e35f51e5fb694085e1a26bfc81ef83553081d1536a2953ab",
          "transactionIndex": "0x2",
          "logIndex": "0x3",
          "removed": false
        },
        {
          "address": "0x8a94d51fbb2917d3217e89b8d168b2303c9dbaba",
          "topics": [
            "0x2f8788117e7eff1d82e926ec794901d17c78024a50270940304540a733656f0d",
            "0x387e6855c418f7449edde8569e1597c13724ffde8b433a88ca59a5014ef61a0c",
            "0x000000000000000000000000a91aaa3708c26f8b48f46be16c0726c926362ab8",
            "0x0000000000000000000000002b1aaa6c0746e09e61b5a12ed4e7ba62e3644e30"
          ],
          "data": "0x",
          "blockHash": "0x5c23ec69c3b67648dfd949c81a1c6239043ba8c854ae12c7846ca4bf0f4d4224",
          "blockNumber": "0x2f3dfe7",
          "transactionHash": "0xdb457bf15fa72b94e35f51e5fb694085e1a26bfc81ef83553081d1536a2953ab",
          "transactionIndex": "0x2",
          "logIndex": "0x4",
          "removed": false
        }
      ],
      "logsBloom": "0x00000004000100000000000000000000100000000000002000000000000000000000000000000000000000000000000000000000000000000004000000800000000000000001000000000000000000000000000810000000000000000000000080000000000000000000000000000000000000000008000000000000000000000000000000000000000000000000000000000001000000000000000000000000000800000002000040000000000000000000000000000000001001000000000004000000000000000000000000000000000000000000000102000000000000000000000000000000000000000000000000000000000000000000010000000000",
      "type": "0x0",
      "transactionHash": "0xdb457bf15fa72b94e35f51e5fb694085e1a26bfc81ef83553081d1536a2953ab",
      "transactionIndex": "0x2",
      "blockHash": "0x5c23ec69c3b67648dfd949c81a1c6239043ba8c854ae12c7846ca4bf0f4d4224",
      "blockNumber": "0x2f3dfe7",
      "gasUsed": "0x365c7",
      "effectiveGasPrice": "0xb2d05e00",
      "from": "0x0eae37a737ea288596ae4bd043eb09202e093302",
      "to": "0x2b1aaa6c0746e09e61b5a12ed4e7ba62e3644e30",
      "contractAddress": null
    }
  ],
  "libraries": [],
  "pending": [],
  "returns": {},
  "timestamp": 1743334472,
  "chain": 97,
  "commit": null
}