{
  "transactions": [
    {
      "hash": "0xef026ff03d94ed934aa97a09b9686c3af99fb74a9bad10650eba206e66b1a524",
      "transactionType": "CALL",
      "contractName": null,
      "contractAddress": "0xcfaefd21e2e0680102075cd455d550504638c3b2",
      "function": "initialize(bytes)",
      "arguments": [
        "0x000000000000000000000000df8b3eaa42cd89e95e1a2a00f2ff568378004dab000000000000000000000000d5bc5f8ef51efe76462177133bb671c8cb8668940000000000000000000000001d81baabf0ac77c42bf1fb77943526ece1aeaa01000000000000000000000000afa8399499b2ee41a04ed98c59db1e0e65cb73c1"
      ],
      "transaction": {
        "from": "0x0eae37a737ea288596ae4bd043eb09202e093302",
        "to": "0xcfaefd21e2e0680102075cd455d550504638c3b2",
        "gas": "0x265fc",
        "value": "0x0",
        "input": "0x439fab9100000000000000000000000000000000000000000000000000000000000000200000000000000000000000000000000000000000000000000000000000000080000000000000000000000000df8b3eaa42cd89e95e1a2a00f2ff568378004dab000000000000000000000000d5bc5f8ef51efe76462177133bb671c8cb8668940000000000000000000000001d81baabf0ac77c42bf1fb77943526ece1aeaa01000000000000000000000000afa8399499b2ee41a04ed98c59db1e0e65cb73c1",
        "nonce": "0x39",
        "chainId": "0x61"
      },
      "additionalContracts": [],
      "isFixedGasLimit": false
    }
  ],
  "receipts": [
    {
      "status": "0x1",
      "cumulativeGasUsed": "0x38b8a",
      "logs": [],
      "logsBloom": "0x00000000000000000000000000000000000000000000000000000000000000000000000000000000000000000000000000000000000000000000000000000000000000000000000000000000000000000000000000000000000000000000000000000000000000000000000000000000000000000000000000000000000000000000000000000000000000000000000000000000000000000000000000000000000000000000000000000000000000000000000000000000000000000000000000000000000000000000000000000000000000000000000000000000000000000000000000000000000000000000000000000000000000000000000000000000",
      "type": "0x0",
      "transactionHash": "0xef026ff03d94ed934aa97a09b9686c3af99fb74a9bad10650eba206e66b1a524",
      "transactionIndex": "0x3",
      "blockHash": "0x3a03ca889cb8b281d3de21f3ddd0d1599a41e86209e32f0d6ade184c5f0e1166",
      "blockNumber": "0x2f3f8b6",
      "gasUsed": "0x1bc84",
      "effectiveGasPrice": "0xb2d05e00",
      "from": "0x0eae37a737ea288596ae4bd043eb09202e093302",
      "to": "0xcfaefd21e2e0680102075cd455d550504638c3b2",
      "contractAddress": null
    }
  ],
  "libraries": [],
  "pending": [],
  "returns": {},
  "timestamp": 1743353525,
  "chain": 97,
  "commit": null
}