{
  "transactions": [
    {
      "hash": "0x8f699d100d753107f1c34e50848a47d16759f77fe9c983e40bd0f3f682db9ffa",
      "transactionType": "CALL",
      "contractName": null,
      "contractAddress": "0x79563847a12d8460feecb59da5cbee886496a993",
      "function": "initialize(bytes)",
      "arguments": [
        "0x0000000000000000000000002b1aaa6c0746e09e61b5a12ed4e7ba62e3644e300000000000000000000000001d81baabf0ac77c42bf1fb77943526ece1aeaa01000000000000000000000000afa8399499b2ee41a04ed98c59db1e0e65cb73c1000000000000000000000000a91aaa3708c26f8b48f46be16c0726c926362ab8000000000000000000000000000000000000000000000000000000000000000000000000000000000000000000000000000000000000000000000000000000000000000000000000000000000000000000000000000000000000000000000000"
      ],
      "transaction": {
        "from": "0x0eae37a737ea288596ae4bd043eb09202e093302",
        "to": "0x79563847a12d8460feecb59da5cbee886496a993",
        "gas": "0x44d7f",
        "value": "0x0",
        "input": "0x439fab91000000000000000000000000000000000000000000000000000000000000002000000000000000000000000000000000000000000000000000000000000000e00000000000000000000000002b1aaa6c0746e09e61b5a12ed4e7ba62e3644e300000000000000000000000001d81baabf0ac77c42bf1fb77943526ece1aeaa01000000000000000000000000afa8399499b2ee41a04ed98c59db1e0e65cb73c1000000000000000000000000a91aaa3708c26f8b48f46be16c0726c926362ab8000000000000000000000000000000000000000000000000000000000000000000000000000000000000000000000000000000000000000000000000000000000000000000000000000000000000000000000000000000000000000000000000",
        "nonce": "0x18",
        "chainId": "0x61"
      },
      "additionalContracts": [],
      "isFixedGasLimit": false
    }
  ],
  "receipts": [
    {
      "status": "0x1",
      "cumulativeGasUsed": "0x34331",
      "logs": [
        {
          "address": "0x79563847a12d8460feecb59da5cbee886496a993",
          "topics": [
            "0x2f8788117e7eff1d82e926ec794901d17c78024a50270940304540a733656f0d",
            "0x43faa5394fad5da9c07153cbcf22d3e5edf5ab7f31544ba862d2e4bbf2e9a48d",
            "0x0000000000000000000000002b1aaa6c0746e09e61b5a12ed4e7ba62e3644e30",
            "0x0000000000000000000000000eae37a737ea288596ae4bd043eb09202e093302"
          ],
          "data": "0x",
          "blockHash": "0x6a9e199a4ba42260f594a36a00c55ce52f7c59de653dba28ade9c52c2ecc0987",
          "blockNumber": "0x2f3e160",
          "transactionHash": "0x8f699d100d753107f1c34e50848a47d16759f77fe9c983e40bd0f3f682db9ffa",
          "transactionIndex": "0x1",
          "logIndex": "0x0",
          "removed": false
        },
        {
          "address": "0x79563847a12d8460feecb59da5cbee886496a993",
          "topics": [
            "0x2f8788117e7eff1d82e926ec794901d17c78024a50270940304540a733656f0d",
            "0x1acf5ce51fa2b28efde5acae5b7b783900a51ccd000f8f7152d7f921142c5af2",
            "0x000000000000000000000000a91aaa3708c26f8b48f46be16c0726c926362ab8",
            "0x0000000000000000000000000eae37a737ea288596ae4bd043eb09202e093302"
          ],
          "data": "0x",
          "blockHash": "0x6a9e199a4ba42260f594a36a00c55ce52f7c59de653dba28ade9c52c2ecc0987",
          "blockNumber": "0x2f3e160",
          "transactionHash": "0x8f699d100d753107f1c34e50848a47d16759f77fe9c983e40bd0f3f682db9ffa",
          "transactionIndex": "0x1",
          "logIndex": "0x1",
          "removed": false
        },
        {
          "address": "0x79563847a12d8460feecb59da5cbee886496a993",
          "topics": [
            "0x2f8788117e7eff1d82e926ec794901d17c78024a50270940304540a733656f0d",
            "0x387e6855c418f7449edde8569e1597c13724ffde8b433a88ca59a5014ef61a0c",
            "0x000000000000000000000000a91aaa3708c26f8b48f46be16c0726c926362ab8",
            "0x0000000000000000000000000eae37a737ea288596ae4bd043eb09202e093302"
          ],
          "data": "0x",
          "blockHash": "0x6a9e199a4ba42260f594a36a00c55ce52f7c59de653dba28ade9c52c2ecc0987",
          "blockNumber": "0x2f3e160",
          "transactionHash": "0x8f699d100d753107f1c34e50848a47d16759f77fe9c983e40bd0f3f682db9ffa",
          "transactionIndex": "0x1",
          "logIndex": "0x2",
          "removed": false
        }
      ],
      "logsBloom": "0x00000004000100000000000000000000000000000000002000000000000000000000000000000000000000000000000000000000000000000004000000800000000000000001000000000000000000000000000010000000000000000000000080000000000000000000000000000000000000000008000000000000000000000000005000000000000000000000000000000001000000000001000000000000000800000002000040000000000000000000000000000000001000000000000004000000000000008000000000000000000000000000000102000040000000000000000000000000000000000000000000008000000000000000010000000000",
      "type": "0x0",
      "transactionHash": "0x8f699d100d753107f1c34e50848a47d16759f77fe9c983e40bd0f3f682db9ffa",
      "transactionIndex": "0x1",
      "blockHash": "0x6a9e199a4ba42260f594a36a00c55ce52f7c59de653dba28ade9c52c2ecc0987",
      "blockNumber": "0x2f3e160",
      "gasUsed": "0x2f129",
      "effectiveGasPrice": "0xb2d05e00",
      "from": "0x0eae37a737ea288596ae4bd043eb09202e093302",
      "to": "0x79563847a12d8460feecb59da5cbee886496a993",
      "contractAddress": null
    }
  ],
  "libraries": [],
  "pending": [],
  "returns": {},
  "timestamp": 1743335604,
  "chain": 97,
  "commit": null
}