{
  "transactions": [
    {
      "hash": "0xc1f92104ad8bab2ab6425420f5fb956c813260e15a626821f63137b7546a3220",
      "transactionType": "CALL",
      "contractName": null,
      "contractAddress": "0xa91aaa3708c26f8b48f46be16c0726c926362ab8",
      "function": "initialize(bytes)",
      "arguments": [
        "0x00000000000000000000000079563847a12d8460feecb59da5cbee886496a993000000000000000000000000d5bc5f8ef51efe76462177133bb671c8cb8668940000000000000000000000001d81baabf0ac77c42bf1fb77943526ece1aeaa01000000000000000000000000afa8399499b2ee41a04ed98c59db1e0e65cb73c1"
      ],
      "transaction": {
        "from": "0x0eae37a737ea288596ae4bd043eb09202e093302",
        "to": "0xa91aaa3708c26f8b48f46be16c0726c926362ab8",
        "gas": "0x2661c",
        "value": "0x0",
        "input": "0x439fab910000000000000000000000000000000000000000000000000000000000000020000000000000000000000000000000000000000000000000000000000000008000000000000000000000000079563847a12d8460feecb59da5cbee886496a993000000000000000000000000d5bc5f8ef51efe76462177133bb671c8cb8668940000000000000000000000001d81baabf0ac77c42bf1fb77943526ece1aeaa01000000000000000000000000afa8399499b2ee41a04ed98c59db1e0e65cb73c1",
        "nonce": "0x1e",
        "chainId": "0x61"
      },
      "additionalContracts": [],
      "isFixedGasLimit": false
    }
  ],
  "receipts": [
    {
      "status": "0x1",
      "cumulativeGasUsed": "0x3b25e",
      "logs": [],
      "logsBloom": "0x00000000000000000000000000000000000000000000000000000000000000000000000000000000000000000000000000000000000000000000000000000000000000000000000000000000000000000000000000000000000000000000000000000000000000000000000000000000000000000000000000000000000000000000000000000000000000000000000000000000000000000000000000000000000000000000000000000000000000000000000000000000000000000000000000000000000000000000000000000000000000000000000000000000000000000000000000000000000000000000000000000000000000000000000000000000",
      "type": "0x0",
      "transactionHash": "0xc1f92104ad8bab2ab6425420f5fb956c813260e15a626821f63137b7546a3220",
      "transactionIndex": "0x2",
      "blockHash": "0x7672b16e498e38d8c3849dd8b0e9104dc894fca17202b6c2b550d33a2761a60f",
      "blockNumber": "0x2f3ec05",
      "gasUsed": "0x1bc9c",
      "effectiveGasPrice": "0xb2d05e00",
      "from": "0x0eae37a737ea288596ae4bd043eb09202e093302",
      "to": "0xa91aaa3708c26f8b48f46be16c0726c926362ab8",
      "contractAddress": null
    }
  ],
  "libraries": [],
  "pending": [],
  "returns": {},
  "timestamp": 1743343778,
  "chain": 97,
  "commit": null
}