{
  "transactions": [
    {
      "hash": "0x41a62259b26f5549fa4f0b69886c0bdbcc3542a9a512c5fa88974574c954ff02",
      "transactionType": "CALL",
      "contractName": null,
      "contractAddress": "0xa30d484f7618c1f72f4ff08c29598c2134d7bc21",
      "function": "initialize(bytes)",
      "arguments": [
        "0x000000000000000000000000dedbdf2f3ee1cb459f2eb0f9a4972a5588158a2d000000000000000000000000d5bc5f8ef51efe76462177133bb671c8cb8668940000000000000000000000001d81baabf0ac77c42bf1fb77943526ece1aeaa01000000000000000000000000afa8399499b2ee41a04ed98c59db1e0e65cb73c1"
      ],
      "transaction": {
        "from": "0x0eae37a737ea288596ae4bd043eb09202e093302",
        "to": "0xa30d484f7618c1f72f4ff08c29598c2134d7bc21",
        "gas": "0x2661c",
        "value": "0x0",
        "input": "0x439fab9100000000000000000000000000000000000000000000000000000000000000200000000000000000000000000000000000000000000000000000000000000080000000000000000000000000dedbdf2f3ee1cb459f2eb0f9a4972a5588158a2d000000000000000000000000d5bc5f8ef51efe76462177133bb671c8cb8668940000000000000000000000001d81baabf0ac77c42bf1fb77943526ece1aeaa01000000000000000000000000afa8399499b2ee41a04ed98c59db1e0e65cb73c1",
        "nonce": "0x45",
        "chainId": "0x61"
      },
      "additionalContracts": [],
      "isFixedGasLimit": false
    }
  ],
  "receipts": [
    {
      "status": "0x1",
      "cumulativeGasUsed": "0x359b5",
      "logs": [],
      "logsBloom": "0x00000000000000000000000000000000000000000000000000000000000000000000000000000000000000000000000000000000000000000000000000000000000000000000000000000000000000000000000000000000000000000000000000000000000000000000000000000000000000000000000000000000000000000000000000000000000000000000000000000000000000000000000000000000000000000000000000000000000000000000000000000000000000000000000000000000000000000000000000000000000000000000000000000000000000000000000000000000000000000000000000000000000000000000000000000000",
      "type": "0x0",
      "transactionHash": "0x41a62259b26f5549fa4f0b69886c0bdbcc3542a9a512c5fa88974574c954ff02",
      "transactionIndex": "0x2",
      "blockHash": "0x1bd73aad736d79f4873601ce1c70d71f6bcbec3481de3abfedb72d4c935ffe69",
      "blockNumber": "0x2f3fa8b",
      "gasUsed": "0x1bc9c",
      "effectiveGasPrice": "0x1bf08eb00",
      "from": "0x0eae37a737ea288596ae4bd043eb09202e093302",
      "to": "0xa30d484f7618c1f72f4ff08c29598c2134d7bc21",
      "contractAddress": null
    }
  ],
  "libraries": [],
  "pending": [],
  "returns": {},
  "timestamp": 1743354933,
  "chain": 97,
  "commit": null
}