{
  "transactions": [
    {
      "hash": "0xb6ea7b00e8ab0b8d46ecc73a95ccfa2509c707eea933e5838c5e2a5f34133304",
      "transactionType": "CALL",
      "contractName": null,
      "contractAddress": "0xbc5d4562a8a3163cd72ac20d6f3fe3bb7bd6633b",
      "function": "initialize(bytes)",
      "arguments": [
        "0x0000000000000000000000000abf81cd4071ba4e42e0a30190d4f75c6adb25be000000000000000000000000d5bc5f8ef51efe76462177133bb671c8cb8668940000000000000000000000001d81baabf0ac77c42bf1fb77943526ece1aeaa01000000000000000000000000afa8399499b2ee41a04ed98c59db1e0e65cb73c1"
      ],
      "transaction": {
        "from": "0x0eae37a737ea288596ae4bd043eb09202e093302",
        "to": "0xbc5d4562a8a3163cd72ac20d6f3fe3bb7bd6633b",
        "gas": "0x2661c",
        "value": "0x0",
        "input": "0x439fab91000000000000000000000000000000000000000000000000000000000000002000000000000000000000000000000000000000000000000000000000000000800000000000000000000000000abf81cd4071ba4e42e0a30190d4f75c6adb25be000000000000000000000000d5bc5f8ef51efe76462177133bb671c8cb8668940000000000000000000000001d81baabf0ac77c42bf1fb77943526ece1aeaa01000000000000000000000000afa8399499b2ee41a04ed98c59db1e0e65cb73c1",
        "nonce": "0x2e",
        "chainId": "0x61"
      },
      "additionalContracts": [],
      "isFixedGasLimit": false
    }
  ],
  "receipts": [
    {
      "status": "0x1",
      "cumulativeGasUsed": "0x7bc19",
      "logs": [],
      "logsBloom": "0x00000000000000000000000000000000000000000000000000000000000000000000000000000000000000000000000000000000000000000000000000000000000000000000000000000000000000000000000000000000000000000000000000000000000000000000000000000000000000000000000000000000000000000000000000000000000000000000000000000000000000000000000000000000000000000000000000000000000000000000000000000000000000000000000000000000000000000000000000000000000000000000000000000000000000000000000000000000000000000000000000000000000000000000000000000000",
      "type": "0x0",
      "transactionHash": "0xb6ea7b00e8ab0b8d46ecc73a95ccfa2509c707eea933e5838c5e2a5f34133304",
      "transactionIndex": "0x6",
      "blockHash": "0x22c884470437324185c3d4aa39b320d3147ae7b9e6cbe0816bfffd480d0c6965",
      "blockNumber": "0x2f3f538",
      "gasUsed": "0x1bc9c",
      "effectiveGasPrice": "0xb2d05e00",
      "from": "0x0eae37a737ea288596ae4bd043eb09202e093302",
      "to": "0xbc5d4562a8a3163cd72ac20d6f3fe3bb7bd6633b",
      "contractAddress": null
    }
  ],
  "libraries": [],
  "pending": [],
  "returns": {},
  "timestamp": 1743350843,
  "chain": 97,
  "commit": null
}